{
  "_format": "hh-sol-artifact-1",
  "contractName": "SafeMPECDH",
  "sourceName": "src/SafeMPECDH.sol",
  "abi": [
    {
      "inputs": [
        {
          "internalType": "address",
          "name": "_master",
          "type": "address"
        }
      ],
      "stateMutability": "nonpayable",
      "type": "constructor"
    },
    {
      "inputs": [],
      "name": "blocking",
      "outputs": [
        {
          "internalType": "address[]",
          "name": "_signers",
          "type": "address[]"
        }
      ],
      "stateMutability": "view",
      "type": "function"
    },
    {
      "inputs": [
        {
          "internalType": "uint256",
          "name": "_slot",
          "type": "uint256"
        }
      ],
      "name": "getQueue",
      "outputs": [
        {
          "internalType": "bytes32[]",
          "name": "_keys",
          "type": "bytes32[]"
        }
      ],
      "stateMutability": "view",
      "type": "function"
    },
    {
      "inputs": [],
      "name": "getSigners",
      "outputs": [
        {
          "internalType": "address[]",
          "name": "_signers",
          "type": "address[]"
        }
      ],
      "stateMutability": "view",
      "type": "function"
    },
    {
      "inputs": [],
      "name": "master",
      "outputs": [
        {
          "internalType": "address",
          "name": "",
          "type": "address"
        }
      ],
      "stateMutability": "view",
      "type": "function"
    },
    {
      "inputs": [
        {
          "internalType": "address",
          "name": "_signer",
          "type": "address"
        }
      ],
      "name": "prep",
      "outputs": [
        {
          "internalType": "enum MPECDH.Step",
          "name": "_status",
          "type": "uint8"
        },
        {
          "internalType": "bytes32",
          "name": "_key",
          "type": "bytes32"
        }
      ],
      "stateMutability": "view",
      "type": "function"
    },
    {
      "inputs": [
        {
          "internalType": "uint256",
          "name": "",
          "type": "uint256"
        }
      ],
      "name": "processed",
      "outputs": [
        {
          "internalType": "uint256",
          "name": "",
          "type": "uint256"
        }
      ],
      "stateMutability": "view",
      "type": "function"
    },
    {
      "inputs": [
        {
          "internalType": "uint256",
          "name": "",
          "type": "uint256"
        },
        {
          "internalType": "uint256",
          "name": "",
          "type": "uint256"
        }
      ],
      "name": "queues",
      "outputs": [
        {
          "internalType": "bytes32",
          "name": "",
          "type": "bytes32"
        }
      ],
      "stateMutability": "view",
      "type": "function"
    },
    {
      "inputs": [],
      "name": "reconstruct",
      "outputs": [],
      "stateMutability": "nonpayable",
      "type": "function"
    },
    {
      "inputs": [
        {
          "internalType": "uint256",
          "name": "",
          "type": "uint256"
        }
      ],
      "name": "signers",
      "outputs": [
        {
          "internalType": "address",
          "name": "",
          "type": "address"
        }
      ],
      "stateMutability": "view",
      "type": "function"
    },
    {
      "inputs": [
        {
          "internalType": "address",
          "name": "_signer",
          "type": "address"
        }
      ],
      "name": "source",
      "outputs": [
        {
          "internalType": "uint256",
          "name": "_slot",
          "type": "uint256"
        }
      ],
      "stateMutability": "view",
      "type": "function"
    },
    {
      "inputs": [
        {
          "internalType": "bytes32",
          "name": "_key",
          "type": "bytes32"
        }
      ],
      "name": "step",
      "outputs": [],
      "stateMutability": "nonpayable",
      "type": "function"
    },
    {
      "inputs": [
        {
          "internalType": "uint256",
          "name": "_sourceSlot",
          "type": "uint256"
        }
      ],
      "name": "target",
      "outputs": [
        {
          "internalType": "uint256",
          "name": "_slot",
          "type": "uint256"
        }
      ],
      "stateMutability": "view",
      "type": "function"
    }
  ],
  "bytecode": "0x60a06040523480156200001157600080fd5b5060405162001cbd38038062001cbd833981810160405281019062000037919062000243565b808073ffffffffffffffffffffffffffffffffffffffff1660808173ffffffffffffffffffffffffffffffffffffffff16815250506200007c6200009c60201b60201c565b60009080519060200190620000939291906200011c565b5050506200043b565b606060805173ffffffffffffffffffffffffffffffffffffffff1663a0e67e2b6040518163ffffffff1660e01b8152600401600060405180830381865afa158015620000ec573d6000803e3d6000fd5b505050506040513d6000823e3d601f19601f82011682018060405250810190620001179190620003ea565b905090565b82805482825590600052602060002090810192821562000198579160200282015b82811115620001975782518260006101000a81548173ffffffffffffffffffffffffffffffffffffffff021916908373ffffffffffffffffffffffffffffffffffffffff160217905550916020019190600101906200013d565b5b509050620001a79190620001ab565b5090565b5b80821115620001c6576000816000905550600101620001ac565b5090565b6000604051905090565b600080fd5b600080fd5b600073ffffffffffffffffffffffffffffffffffffffff82169050919050565b60006200020b82620001de565b9050919050565b6200021d81620001fe565b81146200022957600080fd5b50565b6000815190506200023d8162000212565b92915050565b6000602082840312156200025c576200025b620001d4565b5b60006200026c848285016200022c565b91505092915050565b600080fd5b6000601f19601f8301169050919050565b7f4e487b7100000000000000000000000000000000000000000000000000000000600052604160045260246000fd5b620002c5826200027a565b810181811067ffffffffffffffff82111715620002e757620002e66200028b565b5b80604052505050565b6000620002fc620001ca565b90506200030a8282620002ba565b919050565b600067ffffffffffffffff8211156200032d576200032c6200028b565b5b602082029050602081019050919050565b600080fd5b60006200035a62000354846200030f565b620002f0565b9050808382526020820190506020840283018581111562000380576200037f6200033e565b5b835b81811015620003ad57806200039888826200022c565b84526020840193505060208101905062000382565b5050509392505050565b600082601f830112620003cf57620003ce62000275565b5b8151620003e184826020860162000343565b91505092915050565b600060208284031215620004035762000402620001d4565b5b600082015167ffffffffffffffff811115620004245762000423620001d9565b5b6200043284828501620003b7565b91505092915050565b6080516118586200046560003960008181610c6f01528181610d770152610d9d01526118586000f3fe608060405234801561001057600080fd5b50600436106100b35760003560e01c80639811c7c1116100715780639811c7c1146101b2578063d3667131146101e2578063da138ce714610200578063de7af11114610230578063e18543fa14610261578063ee97f7f31461026b576100b3565b8062886f14146100b857806305a79e06146100e85780630b578ef5146101185780630be8fffc146101345780632079fb9a1461016457806394cf795e14610194575b600080fd5b6100d260048036038101906100cd9190610f63565b610289565b6040516100df9190610fbc565b60405180910390f35b61010260048036038101906100fd9190610fd7565b6102ba565b60405161010f9190611013565b60405180910390f35b610132600480360381019061012d919061105a565b6102d2565b005b61014e60048036038101906101499190610fd7565b610570565b60405161015b9190611145565b60405180910390f35b61017e60048036038101906101799190610fd7565b6105db565b60405161018b91906111a8565b60405180910390f35b61019c61061a565b6040516101a99190611281565b60405180910390f35b6101cc60048036038101906101c79190610fd7565b6106a8565b6040516101d99190611013565b60405180910390f35b6101ea610740565b6040516101f79190611281565b60405180910390f35b61021a600480360381019061021591906112cf565b61096c565b6040516102279190611013565b60405180910390f35b61024a600480360381019061024591906112cf565b610a38565b604051610258929190611373565b60405180910390f35b610269610c6d565b005b610273610d75565b60405161028091906111a8565b60405180910390f35b600160205281600052604060002081815481106102a557600080fd5b90600052602060002001600091509150505481565b60026020528060005260406000206000915090505481565b60006102dc610d99565b90506000805b8251811015610354578281815181106102fe576102fd61139c565b5b602002602001015173ffffffffffffffffffffffffffffffffffffffff163373ffffffffffffffffffffffffffffffffffffffff16036103415760019150610354565b808061034c906113fa565b9150506102e2565b5080610395576040517f08c379a000000000000000000000000000000000000000000000000000000000815260040161038c9061149f565b60405180910390fd5b60006103a03361096c565b905060006002600083815260200190815260200160002054905060005b600080549050811015610463578281146104505781600260008381526020019081526020016000205414806104105750816001600260008481526020019081526020016000205461040e91906114bf565b145b61044f576040517f08c379a00000000000000000000000000000000000000000000000000000000081526004016104469061153f565b60405180910390fd5b5b808061045b906113fa565b9150506103bd565b50600061046f836106a8565b90507fffffffffffffffffffffffffffffffffffffffffffffffffffffffffffffffff81036104d3576040517f08c379a00000000000000000000000000000000000000000000000000000000081526004016104ca906115ab565b60405180910390fd5b60016000805490506104e591906114bf565b600160008381526020019081526020016000208054905010156105685760016000828152602001908152602001600020869080600181540180825580915050600190039060005260206000200160009091909190915055600160026000858152602001908152602001600020600082825461056091906115cb565b925050819055505b505050505050565b6060600160008381526020019081526020016000208054806020026020016040519081016040528092919081815260200182805480156105cf57602002820191906000526020600020905b8154815260200190600101908083116105bb575b50505050509050919050565b600081815481106105eb57600080fd5b906000526020600020016000915054906101000a900473ffffffffffffffffffffffffffffffffffffffff1681565b6060600080548060200260200160405190810160405280929190818152602001828054801561069e57602002820191906000526020600020905b8160009054906101000a900473ffffffffffffffffffffffffffffffffffffffff1673ffffffffffffffffffffffffffffffffffffffff1681526020019060010190808311610654575b5050505050905090565b60007fffffffffffffffffffffffffffffffffffffffffffffffffffffffffffffffff8214806106dd57506000805490508210155b1561070a577fffffffffffffffffffffffffffffffffffffffffffffffffffffffffffffffff905061073b565b600160008054905061071c91906114bf565b820361072b576000905061073b565b60018261073891906115cb565b90505b919050565b60606000805b60008054905081101561079e57816001600083815260200190815260200160002080549050111561078b57600160008281526020019081526020016000208054905091505b8080610796906113fa565b915050610746565b506000805b6000805490508110156107f05782600160008381526020019081526020016000208054905010156107dd5781806107d9906113fa565b9250505b80806107e8906113fa565b9150506107a3565b508067ffffffffffffffff81111561080b5761080a6115ff565b5b6040519080825280602002602001820160405280156108395781602001602082028036833780820191505090505b5092506000805b6000805490508110156109655783600160006108a161089c6000868154811061086c5761086b61139c565b5b9060005260206000200160009054906101000a900473ffffffffffffffffffffffffffffffffffffffff1661096c565b6106a8565b815260200190815260200160002080549050101561095257600081815481106108cd576108cc61139c565b5b9060005260206000200160009054906101000a900473ffffffffffffffffffffffffffffffffffffffff16858380610904906113fa565b9450815181106109175761091661139c565b5b602002602001019073ffffffffffffffffffffffffffffffffffffffff16908173ffffffffffffffffffffffffffffffffffffffff16815250505b808061095d906113fa565b915050610840565b5050505090565b600080600090505b600080549050811015610a0e57600081815481106109955761099461139c565b5b9060005260206000200160009054906101000a900473ffffffffffffffffffffffffffffffffffffffff1673ffffffffffffffffffffffffffffffffffffffff168373ffffffffffffffffffffffffffffffffffffffff16036109fb5780915050610a33565b8080610a06906113fa565b915050610974565b507fffffffffffffffffffffffffffffffffffffffffffffffffffffffffffffffff90505b919050565b6000806000610a468461096c565b90506000610a53826106a8565b90507fffffffffffffffffffffffffffffffffffffffffffffffffffffffffffffffff8103610ab7576040517f08c379a0000000000000000000000000000000000000000000000000000000008152600401610aae906115ab565b60405180910390fd5b6001600080549050610ac991906114bf565b600160008381526020019081526020016000208054905003610ba157600260008381526020019081526020016000205460016000848152602001908152602001600020805490501080610b2f575060006002600084815260200190815260200160002054145b15610b455760008060001b935093505050610c68565b60006001600084815260200190815260200160002060016002600086815260200190815260200160002054610b7a91906114bf565b81548110610b8b57610b8a61139c565b5b9060005260206000200154935093505050610c68565b6001600083815260200190815260200160002080549050600160008381526020019081526020016000208054905011610c5b576000600260008481526020019081526020016000205403610c005760036000801b935093505050610c68565b600180600084815260200190815260200160002060016002600086815260200190815260200160002054610c3491906114bf565b81548110610c4557610c4461139c565b5b9060005260206000200154935093505050610c68565b60026000801b9350935050505b915091565b7f000000000000000000000000000000000000000000000000000000000000000073ffffffffffffffffffffffffffffffffffffffff163373ffffffffffffffffffffffffffffffffffffffff1614610cfb576040517f08c379a0000000000000000000000000000000000000000000000000000000008152600401610cf29061167a565b60405180910390fd5b60005b600080549050811015610d5457600160008281526020019081526020016000206000610d2a9190610e34565b60026000828152602001908152602001600020600090558080610d4c906113fa565b915050610cfe565b50610d5d610d99565b60009080519060200190610d72929190610e55565b50565b7f000000000000000000000000000000000000000000000000000000000000000081565b60607f000000000000000000000000000000000000000000000000000000000000000073ffffffffffffffffffffffffffffffffffffffff1663a0e67e2b6040518163ffffffff1660e01b8152600401600060405180830381865afa158015610e06573d6000803e3d6000fd5b505050506040513d6000823e3d601f19601f82011682018060405250810190610e2f91906117d9565b905090565b5080546000825590600052602060002090810190610e529190610edf565b50565b828054828255906000526020600020908101928215610ece579160200282015b82811115610ecd5782518260006101000a81548173ffffffffffffffffffffffffffffffffffffffff021916908373ffffffffffffffffffffffffffffffffffffffff16021790555091602001919060010190610e75565b5b509050610edb9190610efc565b5090565b5b80821115610ef8576000816000905550600101610ee0565b5090565b5b80821115610f15576000816000905550600101610efd565b5090565b6000604051905090565b600080fd5b600080fd5b6000819050919050565b610f4081610f2d565b8114610f4b57600080fd5b50565b600081359050610f5d81610f37565b92915050565b60008060408385031215610f7a57610f79610f23565b5b6000610f8885828601610f4e565b9250506020610f9985828601610f4e565b9150509250929050565b6000819050919050565b610fb681610fa3565b82525050565b6000602082019050610fd16000830184610fad565b92915050565b600060208284031215610fed57610fec610f23565b5b6000610ffb84828501610f4e565b91505092915050565b61100d81610f2d565b82525050565b60006020820190506110286000830184611004565b92915050565b61103781610fa3565b811461104257600080fd5b50565b6000813590506110548161102e565b92915050565b6000602082840312156110705761106f610f23565b5b600061107e84828501611045565b91505092915050565b600081519050919050565b600082825260208201905092915050565b6000819050602082019050919050565b6110bc81610fa3565b82525050565b60006110ce83836110b3565b60208301905092915050565b6000602082019050919050565b60006110f282611087565b6110fc8185611092565b9350611107836110a3565b8060005b8381101561113857815161111f88826110c2565b975061112a836110da565b92505060018101905061110b565b5085935050505092915050565b6000602082019050818103600083015261115f81846110e7565b905092915050565b600073ffffffffffffffffffffffffffffffffffffffff82169050919050565b600061119282611167565b9050919050565b6111a281611187565b82525050565b60006020820190506111bd6000830184611199565b92915050565b600081519050919050565b600082825260208201905092915050565b6000819050602082019050919050565b6111f881611187565b82525050565b600061120a83836111ef565b60208301905092915050565b6000602082019050919050565b600061122e826111c3565b61123881856111ce565b9350611243836111df565b8060005b8381101561127457815161125b88826111fe565b975061126683611216565b925050600181019050611247565b5085935050505092915050565b6000602082019050818103600083015261129b8184611223565b905092915050565b6112ac81611187565b81146112b757600080fd5b50565b6000813590506112c9816112a3565b92915050565b6000602082840312156112e5576112e4610f23565b5b60006112f3848285016112ba565b91505092915050565b7f4e487b7100000000000000000000000000000000000000000000000000000000600052602160045260246000fd5b6004811061133c5761133b6112fc565b5b50565b600081905061134d8261132b565b919050565b600061135d8261133f565b9050919050565b61136d81611352565b82525050565b60006040820190506113886000830185611364565b6113956020830184610fad565b9392505050565b7f4e487b7100000000000000000000000000000000000000000000000000000000600052603260045260246000fd5b7f4e487b7100000000000000000000000000000000000000000000000000000000600052601160045260246000fd5b600061140582610f2d565b91507fffffffffffffffffffffffffffffffffffffffffffffffffffffffffffffffff8203611437576114366113cb565b5b600182019050919050565b600082825260208201905092915050565b7f6f6e6c79207369676e6572730000000000000000000000000000000000000000600082015250565b6000611489600c83611442565b915061149482611453565b602082019050919050565b600060208201905081810360008301526114b88161147c565b9050919050565b60006114ca82610f2d565b91506114d583610f2d565b92508282039050818111156114ed576114ec6113cb565b5b92915050565b7f70726576696f757320726f756e64206e6f742079657420636f6d706c65746500600082015250565b6000611529601f83611442565b9150611534826114f3565b602082019050919050565b600060208201905081810360008301526115588161151c565b9050919050565b7f6e6f207375636820736c6f740000000000000000000000000000000000000000600082015250565b6000611595600c83611442565b91506115a08261155f565b602082019050919050565b600060208201905081810360008301526115c481611588565b9050919050565b60006115d682610f2d565b91506115e183610f2d565b92508282019050808211156115f9576115f86113cb565b5b92915050565b7f4e487b7100000000000000000000000000000000000000000000000000000000600052604160045260246000fd5b7f6f6e6c79206d6173746572000000000000000000000000000000000000000000600082015250565b6000611664600b83611442565b915061166f8261162e565b602082019050919050565b6000602082019050818103600083015261169381611657565b9050919050565b600080fd5b6000601f19601f8301169050919050565b6116b98261169f565b810181811067ffffffffffffffff821117156116d8576116d76115ff565b5b80604052505050565b60006116eb610f19565b90506116f782826116b0565b919050565b600067ffffffffffffffff821115611717576117166115ff565b5b602082029050602081019050919050565b600080fd5b60008151905061173c816112a3565b92915050565b6000611755611750846116fc565b6116e1565b9050808382526020820190506020840283018581111561177857611777611728565b5b835b818110156117a1578061178d888261172d565b84526020840193505060208101905061177a565b5050509392505050565b600082601f8301126117c0576117bf61169a565b5b81516117d0848260208601611742565b91505092915050565b6000602082840312156117ef576117ee610f23565b5b600082015167ffffffffffffffff81111561180d5761180c610f28565b5b611819848285016117ab565b9150509291505056fea264697066735822122016695b06317990f61e26749592090bc8fc2f06c171beca9b72bbaccf5ec471a964736f6c63430008130033",
  "linkReferences": {},
  "deployedLinkReferences": {}
}