{
  "_format": "hh-sol-artifact-1",
  "contractName": "SafeMPECDH",
  "sourceName": "src/SafeMPECDH.sol",
  "abi": [
    {
      "inputs": [
        {
          "internalType": "address",
          "name": "_master",
          "type": "address"
        }
      ],
      "stateMutability": "nonpayable",
      "type": "constructor"
    },
    {
      "inputs": [],
      "name": "blocking",
      "outputs": [
        {
          "internalType": "address[]",
          "name": "_signers",
          "type": "address[]"
        }
      ],
      "stateMutability": "view",
      "type": "function"
    },
    {
      "inputs": [
        {
          "internalType": "uint256",
          "name": "_slot",
          "type": "uint256"
        }
      ],
      "name": "getQueue",
      "outputs": [
        {
          "internalType": "bytes32[]",
          "name": "_keys",
          "type": "bytes32[]"
        }
      ],
      "stateMutability": "view",
      "type": "function"
    },
    {
      "inputs": [],
      "name": "getSigners",
      "outputs": [
        {
          "internalType": "address[]",
          "name": "_signers",
          "type": "address[]"
        }
      ],
      "stateMutability": "view",
      "type": "function"
    },
    {
      "inputs": [],
      "name": "master",
      "outputs": [
        {
          "internalType": "address",
          "name": "",
          "type": "address"
        }
      ],
      "stateMutability": "view",
      "type": "function"
    },
    {
      "inputs": [
        {
          "internalType": "address",
          "name": "_signer",
          "type": "address"
        }
      ],
      "name": "prep",
      "outputs": [
        {
          "internalType": "enum MPECDH.Step",
          "name": "_status",
          "type": "uint8"
        },
        {
          "internalType": "bytes32",
          "name": "_key",
          "type": "bytes32"
        }
      ],
      "stateMutability": "view",
      "type": "function"
    },
    {
      "inputs": [
        {
          "internalType": "uint256",
          "name": "",
          "type": "uint256"
        }
      ],
      "name": "processed",
      "outputs": [
        {
          "internalType": "uint256",
          "name": "",
          "type": "uint256"
        }
      ],
      "stateMutability": "view",
      "type": "function"
    },
    {
      "inputs": [
        {
          "internalType": "uint256",
          "name": "",
          "type": "uint256"
        },
        {
          "internalType": "uint256",
          "name": "",
          "type": "uint256"
        }
      ],
      "name": "queues",
      "outputs": [
        {
          "internalType": "bytes32",
          "name": "",
          "type": "bytes32"
        }
      ],
      "stateMutability": "view",
      "type": "function"
    },
    {
      "inputs": [],
      "name": "reconstruct",
      "outputs": [],
      "stateMutability": "nonpayable",
      "type": "function"
    },
    {
      "inputs": [
        {
          "internalType": "uint256",
          "name": "",
          "type": "uint256"
        }
      ],
      "name": "signers",
      "outputs": [
        {
          "internalType": "address",
          "name": "",
          "type": "address"
        }
      ],
      "stateMutability": "view",
      "type": "function"
    },
    {
      "inputs": [
        {
          "internalType": "address",
          "name": "_signer",
          "type": "address"
        }
      ],
      "name": "source",
      "outputs": [
        {
          "internalType": "uint256",
          "name": "_slot",
          "type": "uint256"
        }
      ],
      "stateMutability": "view",
      "type": "function"
    },
    {
      "inputs": [
        {
          "internalType": "bytes32",
          "name": "_key",
          "type": "bytes32"
        }
      ],
      "name": "step",
      "outputs": [],
      "stateMutability": "nonpayable",
      "type": "function"
    },
    {
      "inputs": [
        {
          "internalType": "uint256",
          "name": "_sourceSlot",
          "type": "uint256"
        }
      ],
      "name": "target",
      "outputs": [
        {
          "internalType": "uint256",
          "name": "_slot",
          "type": "uint256"
        }
      ],
      "stateMutability": "view",
      "type": "function"
    }
  ],
  "bytecode": "0x60a06040523480156200001157600080fd5b5060405162001c3138038062001c31833981810160405281019062000037919062000243565b808073ffffffffffffffffffffffffffffffffffffffff1660808173ffffffffffffffffffffffffffffffffffffffff16815250506200007c6200009c60201b60201c565b60009080519060200190620000939291906200011c565b5050506200043b565b606060805173ffffffffffffffffffffffffffffffffffffffff1663a0e67e2b6040518163ffffffff1660e01b8152600401600060405180830381865afa158015620000ec573d6000803e3d6000fd5b505050506040513d6000823e3d601f19601f82011682018060405250810190620001179190620003ea565b905090565b82805482825590600052602060002090810192821562000198579160200282015b82811115620001975782518260006101000a81548173ffffffffffffffffffffffffffffffffffffffff021916908373ffffffffffffffffffffffffffffffffffffffff160217905550916020019190600101906200013d565b5b509050620001a79190620001ab565b5090565b5b80821115620001c6576000816000905550600101620001ac565b5090565b6000604051905090565b600080fd5b600080fd5b600073ffffffffffffffffffffffffffffffffffffffff82169050919050565b60006200020b82620001de565b9050919050565b6200021d81620001fe565b81146200022957600080fd5b50565b6000815190506200023d8162000212565b92915050565b6000602082840312156200025c576200025b620001d4565b5b60006200026c848285016200022c565b91505092915050565b600080fd5b6000601f19601f8301169050919050565b7f4e487b7100000000000000000000000000000000000000000000000000000000600052604160045260246000fd5b620002c5826200027a565b810181811067ffffffffffffffff82111715620002e757620002e66200028b565b5b80604052505050565b6000620002fc620001ca565b90506200030a8282620002ba565b919050565b600067ffffffffffffffff8211156200032d576200032c6200028b565b5b602082029050602081019050919050565b600080fd5b60006200035a62000354846200030f565b620002f0565b9050808382526020820190506020840283018581111562000380576200037f6200033e565b5b835b81811015620003ad57806200039888826200022c565b84526020840193505060208101905062000382565b5050509392505050565b600082601f830112620003cf57620003ce62000275565b5b8151620003e184826020860162000343565b91505092915050565b600060208284031215620004035762000402620001d4565b5b600082015167ffffffffffffffff811115620004245762000423620001d9565b5b6200043284828501620003b7565b91505092915050565b6080516117cc6200046560003960008181610be301528181610ceb0152610d1101526117cc6000f3fe608060405234801561001057600080fd5b50600436106100b35760003560e01c80639811c7c1116100715780639811c7c1146101b2578063d3667131146101e2578063da138ce714610200578063de7af11114610230578063e18543fa14610261578063ee97f7f31461026b576100b3565b8062886f14146100b857806305a79e06146100e85780630b578ef5146101185780630be8fffc146101345780632079fb9a1461016457806394cf795e14610194575b600080fd5b6100d260048036038101906100cd9190610ed7565b610289565b6040516100df9190610f30565b60405180910390f35b61010260048036038101906100fd9190610f4b565b6102ba565b60405161010f9190610f87565b60405180910390f35b610132600480360381019061012d9190610fce565b6102d2565b005b61014e60048036038101906101499190610f4b565b610570565b60405161015b91906110b9565b60405180910390f35b61017e60048036038101906101799190610f4b565b6105db565b60405161018b919061111c565b60405180910390f35b61019c61061a565b6040516101a991906111f5565b60405180910390f35b6101cc60048036038101906101c79190610f4b565b6106a8565b6040516101d99190610f87565b60405180910390f35b6101ea610740565b6040516101f791906111f5565b60405180910390f35b61021a60048036038101906102159190611243565b61096c565b6040516102279190610f87565b60405180910390f35b61024a60048036038101906102459190611243565b610a38565b6040516102589291906112e7565b60405180910390f35b610269610be1565b005b610273610ce9565b604051610280919061111c565b60405180910390f35b600160205281600052604060002081815481106102a557600080fd5b90600052602060002001600091509150505481565b60026020528060005260406000206000915090505481565b60006102dc610d0d565b90506000805b8251811015610354578281815181106102fe576102fd611310565b5b602002602001015173ffffffffffffffffffffffffffffffffffffffff163373ffffffffffffffffffffffffffffffffffffffff16036103415760019150610354565b808061034c9061136e565b9150506102e2565b5080610395576040517f08c379a000000000000000000000000000000000000000000000000000000000815260040161038c90611413565b60405180910390fd5b60006103a03361096c565b905060006002600083815260200190815260200160002054905060005b600080549050811015610463578281146104505781600260008381526020019081526020016000205414806104105750816001600260008481526020019081526020016000205461040e9190611433565b145b61044f576040517f08c379a0000000000000000000000000000000000000000000000000000000008152600401610446906114b3565b60405180910390fd5b5b808061045b9061136e565b9150506103bd565b50600061046f836106a8565b90507fffffffffffffffffffffffffffffffffffffffffffffffffffffffffffffffff81036104d3576040517f08c379a00000000000000000000000000000000000000000000000000000000081526004016104ca9061151f565b60405180910390fd5b60016000805490506104e59190611433565b6001600083815260200190815260200160002080549050101561056857600160008281526020019081526020016000208690806001815401808255809150506001900390600052602060002001600090919091909150556001600260008581526020019081526020016000206000828254610560919061153f565b925050819055505b505050505050565b6060600160008381526020019081526020016000208054806020026020016040519081016040528092919081815260200182805480156105cf57602002820191906000526020600020905b8154815260200190600101908083116105bb575b50505050509050919050565b600081815481106105eb57600080fd5b906000526020600020016000915054906101000a900473ffffffffffffffffffffffffffffffffffffffff1681565b6060600080548060200260200160405190810160405280929190818152602001828054801561069e57602002820191906000526020600020905b8160009054906101000a900473ffffffffffffffffffffffffffffffffffffffff1673ffffffffffffffffffffffffffffffffffffffff1681526020019060010190808311610654575b5050505050905090565b60007fffffffffffffffffffffffffffffffffffffffffffffffffffffffffffffffff8214806106dd57506000805490508210155b1561070a577fffffffffffffffffffffffffffffffffffffffffffffffffffffffffffffffff905061073b565b600160008054905061071c9190611433565b820361072b576000905061073b565b600182610738919061153f565b90505b919050565b60606000805b60008054905081101561079e57816001600083815260200190815260200160002080549050111561078b57600160008281526020019081526020016000208054905091505b80806107969061136e565b915050610746565b506000805b6000805490508110156107f05782600160008381526020019081526020016000208054905010156107dd5781806107d99061136e565b9250505b80806107e89061136e565b9150506107a3565b508067ffffffffffffffff81111561080b5761080a611573565b5b6040519080825280602002602001820160405280156108395781602001602082028036833780820191505090505b5092506000805b6000805490508110156109655783600160006108a161089c6000868154811061086c5761086b611310565b5b9060005260206000200160009054906101000a900473ffffffffffffffffffffffffffffffffffffffff1661096c565b6106a8565b815260200190815260200160002080549050101561095257600081815481106108cd576108cc611310565b5b9060005260206000200160009054906101000a900473ffffffffffffffffffffffffffffffffffffffff168583806109049061136e565b94508151811061091757610916611310565b5b602002602001019073ffffffffffffffffffffffffffffffffffffffff16908173ffffffffffffffffffffffffffffffffffffffff16815250505b808061095d9061136e565b915050610840565b5050505090565b600080600090505b600080549050811015610a0e576000818154811061099557610994611310565b5b9060005260206000200160009054906101000a900473ffffffffffffffffffffffffffffffffffffffff1673ffffffffffffffffffffffffffffffffffffffff168373ffffffffffffffffffffffffffffffffffffffff16036109fb5780915050610a33565b8080610a069061136e565b915050610974565b507fffffffffffffffffffffffffffffffffffffffffffffffffffffffffffffffff90505b919050565b6000806000610a468461096c565b90506000610a53826106a8565b90507fffffffffffffffffffffffffffffffffffffffffffffffffffffffffffffffff8103610ab7576040517f08c379a0000000000000000000000000000000000000000000000000000000008152600401610aae9061151f565b60405180910390fd5b6001600080549050610ac99190611433565b600160008381526020019081526020016000208054905003610b415760006001600084815260200190815260200160002060016002600086815260200190815260200160002054610b1a9190611433565b81548110610b2b57610b2a611310565b5b9060005260206000200154935093505050610bdc565b6001600083815260200190815260200160002080549050600160008381526020019081526020016000208054905011610bcf57600180600084815260200190815260200160002060016002600086815260200190815260200160002054610ba89190611433565b81548110610bb957610bb8611310565b5b9060005260206000200154935093505050610bdc565b60026000801b9350935050505b915091565b7f000000000000000000000000000000000000000000000000000000000000000073ffffffffffffffffffffffffffffffffffffffff163373ffffffffffffffffffffffffffffffffffffffff1614610c6f576040517f08c379a0000000000000000000000000000000000000000000000000000000008152600401610c66906115ee565b60405180910390fd5b60005b600080549050811015610cc857600160008281526020019081526020016000206000610c9e9190610da8565b60026000828152602001908152602001600020600090558080610cc09061136e565b915050610c72565b50610cd1610d0d565b60009080519060200190610ce6929190610dc9565b50565b7f000000000000000000000000000000000000000000000000000000000000000081565b60607f000000000000000000000000000000000000000000000000000000000000000073ffffffffffffffffffffffffffffffffffffffff1663a0e67e2b6040518163ffffffff1660e01b8152600401600060405180830381865afa158015610d7a573d6000803e3d6000fd5b505050506040513d6000823e3d601f19601f82011682018060405250810190610da3919061174d565b905090565b5080546000825590600052602060002090810190610dc69190610e53565b50565b828054828255906000526020600020908101928215610e42579160200282015b82811115610e415782518260006101000a81548173ffffffffffffffffffffffffffffffffffffffff021916908373ffffffffffffffffffffffffffffffffffffffff16021790555091602001919060010190610de9565b5b509050610e4f9190610e70565b5090565b5b80821115610e6c576000816000905550600101610e54565b5090565b5b80821115610e89576000816000905550600101610e71565b5090565b6000604051905090565b600080fd5b600080fd5b6000819050919050565b610eb481610ea1565b8114610ebf57600080fd5b50565b600081359050610ed181610eab565b92915050565b60008060408385031215610eee57610eed610e97565b5b6000610efc85828601610ec2565b9250506020610f0d85828601610ec2565b9150509250929050565b6000819050919050565b610f2a81610f17565b82525050565b6000602082019050610f456000830184610f21565b92915050565b600060208284031215610f6157610f60610e97565b5b6000610f6f84828501610ec2565b91505092915050565b610f8181610ea1565b82525050565b6000602082019050610f9c6000830184610f78565b92915050565b610fab81610f17565b8114610fb657600080fd5b50565b600081359050610fc881610fa2565b92915050565b600060208284031215610fe457610fe3610e97565b5b6000610ff284828501610fb9565b91505092915050565b600081519050919050565b600082825260208201905092915050565b6000819050602082019050919050565b61103081610f17565b82525050565b60006110428383611027565b60208301905092915050565b6000602082019050919050565b600061106682610ffb565b6110708185611006565b935061107b83611017565b8060005b838110156110ac5781516110938882611036565b975061109e8361104e565b92505060018101905061107f565b5085935050505092915050565b600060208201905081810360008301526110d3818461105b565b905092915050565b600073ffffffffffffffffffffffffffffffffffffffff82169050919050565b6000611106826110db565b9050919050565b611116816110fb565b82525050565b6000602082019050611131600083018461110d565b92915050565b600081519050919050565b600082825260208201905092915050565b6000819050602082019050919050565b61116c816110fb565b82525050565b600061117e8383611163565b60208301905092915050565b6000602082019050919050565b60006111a282611137565b6111ac8185611142565b93506111b783611153565b8060005b838110156111e85781516111cf8882611172565b97506111da8361118a565b9250506001810190506111bb565b5085935050505092915050565b6000602082019050818103600083015261120f8184611197565b905092915050565b611220816110fb565b811461122b57600080fd5b50565b60008135905061123d81611217565b92915050565b60006020828403121561125957611258610e97565b5b60006112678482850161122e565b91505092915050565b7f4e487b7100000000000000000000000000000000000000000000000000000000600052602160045260246000fd5b600381106112b0576112af611270565b5b50565b60008190506112c18261129f565b919050565b60006112d1826112b3565b9050919050565b6112e1816112c6565b82525050565b60006040820190506112fc60008301856112d8565b6113096020830184610f21565b9392505050565b7f4e487b7100000000000000000000000000000000000000000000000000000000600052603260045260246000fd5b7f4e487b7100000000000000000000000000000000000000000000000000000000600052601160045260246000fd5b600061137982610ea1565b91507fffffffffffffffffffffffffffffffffffffffffffffffffffffffffffffffff82036113ab576113aa61133f565b5b600182019050919050565b600082825260208201905092915050565b7f6f6e6c79207369676e6572730000000000000000000000000000000000000000600082015250565b60006113fd600c836113b6565b9150611408826113c7565b602082019050919050565b6000602082019050818103600083015261142c816113f0565b9050919050565b600061143e82610ea1565b915061144983610ea1565b92508282039050818111156114615761146061133f565b5b92915050565b7f70726576696f757320726f756e64206e6f742079657420636f6d706c65746500600082015250565b600061149d601f836113b6565b91506114a882611467565b602082019050919050565b600060208201905081810360008301526114cc81611490565b9050919050565b7f6e6f207375636820736c6f740000000000000000000000000000000000000000600082015250565b6000611509600c836113b6565b9150611514826114d3565b602082019050919050565b60006020820190508181036000830152611538816114fc565b9050919050565b600061154a82610ea1565b915061155583610ea1565b925082820190508082111561156d5761156c61133f565b5b92915050565b7f4e487b7100000000000000000000000000000000000000000000000000000000600052604160045260246000fd5b7f6f6e6c79206d6173746572000000000000000000000000000000000000000000600082015250565b60006115d8600b836113b6565b91506115e3826115a2565b602082019050919050565b60006020820190508181036000830152611607816115cb565b9050919050565b600080fd5b6000601f19601f8301169050919050565b61162d82611613565b810181811067ffffffffffffffff8211171561164c5761164b611573565b5b80604052505050565b600061165f610e8d565b905061166b8282611624565b919050565b600067ffffffffffffffff82111561168b5761168a611573565b5b602082029050602081019050919050565b600080fd5b6000815190506116b081611217565b92915050565b60006116c96116c484611670565b611655565b905080838252602082019050602084028301858111156116ec576116eb61169c565b5b835b81811015611715578061170188826116a1565b8452602084019350506020810190506116ee565b5050509392505050565b600082601f8301126117345761173361160e565b5b81516117448482602086016116b6565b91505092915050565b60006020828403121561176357611762610e97565b5b600082015167ffffffffffffffff81111561178157611780610e9c565b5b61178d8482850161171f565b9150509291505056fea2646970667358221220af2383557071805bc9514936ab7b47257928e8e1bda9a92004254bbe4b787a5564736f6c63430008130033",
  "linkReferences": {},
  "deployedLinkReferences": {}
}